:020000040000FA
:020000001C28BA
:040002000034003492
:08000800A000030EA1000B1182
:10001000CF0B0E28A215D00B0E282216210E83001E
:10002000A00E200E09005E30A300AF30A400A40B88
:100030001728A30B15280800850186018701880170
:10004000890103138316003085000F3086000030CD
:1000500087000030880000308900C730810084307C
:100060008B0007309F00F930920003138312063093
:100070009200203084008001840A0408803A031D25
:100080003B28FF308700FF3088002210A210221189
:10009000A212A21122122213A2130030C600D10113
:1000A000D201CC01A21CAE20A2195928221A5D2827
:1000B000632CA2113E30CF00522822120A30D00009
:1000C000A21A74286C28A21122123E30CF000A30E6
:1000D000D00081018B16080007309B001D169D166D
:1000E00006168612A216522806128612A212782826
:1000F0008B125228D101CC01D201A0254B08BC00A3
:100100000330BE0047243B08D1073D08D207CC0A84
:10011000A0254B08BC000330BE0047243B08D10794
:100120003D08D207CC0AA0254B08BC000330BE0016
:1001300047243B08D1073D08D2075208BC000330D2
:10014000BE0047243B08D1073D08A8000030A700A7
:100150000330A900FB232C08D200080009103C3012
:100160008800D4233C308800D4233C308800D4233A
:100170000C308800D42301308800D4230630880056
:10018000D423A2148030CC235030D0238130CC2310
:100190005230D0238230CC234F30D0238330CC2335
:1001A0004A30D0238430CC234530D0238530CC2333
:1001B0005430D0238630CC234F30D0238730CC230B
:1001C0002030D0238830CC237530D0238930CC2305
:1001D0004330D023C030CC234730D023C130CC2390
:1001E0004130D023C230CC234230D023C330CC2383
:1001F0005230D023C430CC234930D023C530CC2357
:100200004530D023C630CC234C30D023C730CC234C
:100210002030D023C830CC234D30D023C930CC235C
:100220004130D023CA30CC235430D023CB30CC2320
:100230004930D023CC30CC234130D023CD30CC2317
:100240005330D02308000130CC238030CC23413000
:10025000D0238130CC235430D0238230CC2345307E
:10026000D0238330CC234E30D0238430CC23433072
:10027000D0238530CC234130D0238630CC234F305F
:10028000D023C030CC234330D023C130CC234130E5
:10029000D023C230CC234930D023C330CC235830B4
:1002A000D023C430CC234130D023C530CC232030E0
:1002B000D023C630CC234508D023C730CC232030F0
:1002C000D023C830CC234C30D023C930CC23493084
:1002D000D023CA30CC235630D023CB30CC2352305D
:1002E000D023CC30CC234530D02308000130CC23A0
:1002F0008030CC234330D0238130CC234130D023F5
:100300008230CC234930D0238330CC235830D023C3
:100310008430CC234130D0238530CC232030D023EF
:100320008630CC234508D023C030CC234630D023A0
:10033000C130CC234930D023C230CC234E30D0231F
:10034000C330CC234130D023C430CC234C30D02315
:10035000C530CC234930D023C630CC235A30D023EB
:10036000C730CC234130D023C830CC234430D023F5
:10037000C930CC234F30D02308000130CC2380304B
:10038000CC234130D0238130CC235430D023823051
:10039000CC234530D0238330CC234E30D02384303F
:1003A000CC234430D0238530CC234930D023863031
:1003B000CC234D30D0238730CC234530D023883018
:1003C000CC234E30D0238930CC235430D0238A30F4
:1003D000CC234F30D0238B30CC235330D0238C30E0
:1003E000CC233A30D023C030CC234808D023C130AE
:1003F000CC234908D023C230CC234A08D023C330B1
:10040000CC232030D023C430CC235030D023C5306F
:10041000CC234530D023C630CC235330D023C73033
:10042000CC235330D023C830CC234F30D023C93015
:10043000CC234130D023CA30CC235330D023080002
:100440000130CC238030CC234530D0238130CC23E5
:100450004E30D0238230CC234430D0238330CC2381
:100460004530D0238430CC235230D0238530CC2368
:100470004530D0238630CC234330D0238730CC2363
:100480004F30D0238830CC233A30D0238930CC234E
:100490003030D0238A30CC237830D0234C08CD00A4
:1004A000CE00F030CD05CD0E0F30CE053030CD076B
:1004B000CE078B30CC234D08D0238C30CC234E0874
:1004C000D023C030CC235330D023C130CC23413093
:1004D000D023C230CC234C30D023C330CC23563071
:1004E000D023C430CC234130D023C530CC2352306C
:1004F000D023C630CC232030D023C730CC234F307C
:10050000D023C830CC235530D023C930CC23203061
:10051000D023CA30CC234C30D023CB30CC23453031
:10052000D023CC30CC235230D023CD30CC233F301D
:10053000D02308000130CC238030CC235330D0238B
:100540008130CC234130D0238230CC234C30D02397
:100550008330CC235630D0238430CC234F30D0236B
:100560008530CC232130D02308000130CC238030CB
:10057000CC234D30D0238130CC234F30D023823058
:10058000CC235430D0238330CC234F30D02384303D
:10059000CC235230D0238530CC232030D02386305A
:1005A000CC234530D0238730CC234D30D023883026
:1005B000CC232030D0238930CC233330D0238A3051
:1005C000CC233330D0238B30CC232530D0230800EC
:1005D0000130CC238030CC234D30D0238130CC234C
:1005E0004F30D0238230CC235430D0238330CC23DF
:1005F0004F30D0238430CC235230D0238530CC23CD
:100600002030D0238630CC234530D0238730CC23F4
:100610004D30D0238830CC232030D0238930CC23D8
:100620003130D0238A30CC233030D0238B30CC23D0
:100630003030D0238C30CC232530D023080001303B
:10064000CC2322178030CC234D30D0238130CC23D3
:100650004530D0238230CC234430D0238330CC2388
:100660004930D0238430CC234130D0238530CC2373
:100670003A30D0238630CC233030C8074808D02306
:100680008730CC233030C9074908D0238830CC23A9
:100690003030CA074A08D023A21B08008930CC2377
:1006A0002C30D0238A30CC233030D2075208D023CC
:1006B00008000130CC2322178030CC234D30D023CA
:1006C0008130CC234530D0238230CC234430D0231A
:1006D0008330CC234930D0238430CC234130D02305
:1006E0008530CC233A30D0238630CC233030C90734
:1006F0004908D0238730CC233030CA074A08D0239A
:10070000A21B08008830CC232C30D0238930CC2386
:100710003030D2075208D02308000130CC232217F2
:100720008030CC234D30D0238130CC234530D023B2
:100730008230CC234430D0238330CC234930D023A3
:100740008430CC234130D0238530CC233A30D023A1
:100750008630CC233030CA074A08D023A21B0800B9
:100760008730CC232C30D0238830CC233030D207B4
:100770005208D02308004708BC006430BE0047245C
:100780003B08C8003D08BC000A30BE0047243B08B7
:10079000C9003D08CA00080009108800D4230800D9
:1007A00009148800D4230800891413201320891009
:1007B00008000301031026182907A90DA618290708
:1007C000A90D26192907A90DA6192907AA00A90DFF
:1007D000A90E0800AB01AC012608003A0319080075
:1007E0002908003A031908002908AC070318AB0AC6
:1007F000A60BF42B0800AB01AC012908A500A71833
:10080000072C2718072C2808003A03190800290884
:10081000003A031908002808AC070318AB0A270898
:10082000AB07A50B0B2C0800AD01AE013008B400DE
:100830002F08B3002F08B1003008B2003508B70008
:100840003608B800380832020130031C3102031C9C
:100850002D2C3008BA002F08B90039240130031CB0
:100860000800AE070318AD0A3408BA003308B9000F
:100870002D2C3608B4020130031CB302031C432C98
:100880003508B30208003508B30203100800BB01A5
:100890003C08BD003E083D02031C0800BD00BB0A29
:1008A0004A2C4008C2003F08C1004408C20201307F
:1008B000031CC102031C5F244308C1020800430853
:1008C000C10203100800FE3087006D24FB30870052
:1008D0007624F73087007F245228061C8824861C43
:1008E000A924061DBD24861DD0240800061CE02472
:1008F000861CEF24061DFE24861D0D250800061CFF
:100900002425861C3C25061D5425861D76250800B9
:1009100006180800132006180800132006180800FF
:10092000061C902CA21A0800051522143130C500AF
:1009300023216320132013201320132013201320BE
:10094000132013201320132013201320132005112C
:10095000080086180800132086180800132086183F
:100960000800861CB12C221C0800C60A3130C500C4
:10097000762122102216A21608000619080013205C
:1009800006190800132006190800061DC52C460884
:10099000C700BB233030C807C907CA07BD210800FC
:1009A00086190800132086190800132086190800EC
:1009B000861DD82C221D080087259A2222110800A6
:1009C000061808001320061808001320061808004F
:1009D000061CE82C0030CC002022221508008618C6
:1009E0000800132086180800132086180800861CAB
:1009F000F72C0130CC00202222150800061908002F
:100A0000132006190800132006190800061D062DDC
:100A10000230CC002022221508008619080013207D
:100A200086190800132086190800861D152D221D21
:100A30000800A0254B08C700BB233030C807C907F2
:100A4000CA07BD2122110800061808001320061845
:100A50000800132006180800061C2C2DA21A0800F6
:100A6000221C080059309B001D169D160616861282
:100A70006320B522A21608008618080013208618E5
:100A80000800132086180800861C442DA21A0800AE
:100A9000221C0800FF309B001D169D1606168612AC
:100AA0006320E822A2160800061908001320061980
:100AB0000800132006190800061D5C2D2213A2133E
:100AC0007A205108C700BB235208003A0319A21725
:100AD0004808003A031D1F23221B08004908003A5A
:100AE000031D5923221B08008D23080086190800C6
:100AF000132086190800132086190800861D7E2DF4
:100B00000030C600AE2022102216A21608004608A9
:100B1000031783128C00031383124C0803178312EC
:100B20008D00031783168C130C1555308D00AA30D9
:100B30008D008C148C189A2D0C110313831208004D
:100B40004C08031783128D00031783168C130C14A3
:0E0B5000031783120C0803138312CB00080056
:02400E003A373F
:00000001FF
